{
  "_format": "hh-sol-artifact-1",
  "contractName": "BscBridgeBurn",
  "sourceName": "contracts/BridgePHA-eth/BscBridgeBurn.sol",
  "abi": [
    {
      "inputs": [
        {
          "internalType": "contract CIT",
          "name": "_token",
          "type": "address"
        }
      ],
      "stateMutability": "nonpayable",
      "type": "constructor"
    },
    {
      "anonymous": false,
      "inputs": [
        {
          "indexed": true,
          "internalType": "address",
          "name": "previousOwner",
          "type": "address"
        },
        {
          "indexed": true,
          "internalType": "address",
          "name": "newOwner",
          "type": "address"
        }
      ],
      "name": "OwnershipTransferred",
      "type": "event"
    },
    {
      "anonymous": false,
      "inputs": [
        {
          "indexed": false,
          "internalType": "address",
          "name": "from",
          "type": "address"
        },
        {
          "indexed": false,
          "internalType": "string",
          "name": "to",
          "type": "string"
        },
        {
          "indexed": false,
          "internalType": "uint256",
          "name": "amount",
          "type": "uint256"
        },
        {
          "indexed": false,
          "internalType": "uint256",
          "name": "date",
          "type": "uint256"
        },
        {
          "indexed": false,
          "internalType": "uint256",
          "name": "nonce",
          "type": "uint256"
        },
        {
          "indexed": false,
          "internalType": "bytes",
          "name": "signature",
          "type": "bytes"
        },
        {
          "indexed": true,
          "internalType": "enum BscBridgeBurn.Step",
          "name": "step",
          "type": "uint8"
        },
        {
          "indexed": false,
          "internalType": "string",
          "name": "chain",
          "type": "string"
        }
      ],
      "name": "Transfer",
      "type": "event"
    },
    {
      "inputs": [
        {
          "internalType": "address",
          "name": "wallet",
          "type": "address"
        },
        {
          "internalType": "uint256",
          "name": "percentage",
          "type": "uint256"
        }
      ],
      "name": "addTaxRecipient",
      "outputs": [],
      "stateMutability": "nonpayable",
      "type": "function"
    },
    {
      "inputs": [],
      "name": "bscTaxRate",
      "outputs": [
        {
          "internalType": "uint256",
          "name": "",
          "type": "uint256"
        }
      ],
      "stateMutability": "view",
      "type": "function"
    },
    {
      "inputs": [
        {
          "internalType": "string",
          "name": "to",
          "type": "string"
        },
        {
          "internalType": "uint256",
          "name": "amount",
          "type": "uint256"
        },
        {
          "internalType": "uint256",
          "name": "nonce",
          "type": "uint256"
        },
        {
          "internalType": "bytes",
          "name": "signature",
          "type": "bytes"
        },
        {
          "internalType": "uint256",
          "name": "chainId",
          "type": "uint256"
        }
      ],
      "name": "burn",
      "outputs": [],
      "stateMutability": "payable",
      "type": "function"
    },
    {
      "inputs": [
        {
          "internalType": "uint256",
          "name": "",
          "type": "uint256"
        }
      ],
      "name": "chainNames",
      "outputs": [
        {
          "internalType": "string",
          "name": "",
          "type": "string"
        }
      ],
      "stateMutability": "view",
      "type": "function"
    },
    {
      "inputs": [
        {
          "internalType": "address",
          "name": "user",
          "type": "address"
        }
      ],
      "name": "getLatestNonce",
      "outputs": [
        {
          "internalType": "uint256",
          "name": "",
          "type": "uint256"
        }
      ],
      "stateMutability": "view",
      "type": "function"
    },
    {
      "inputs": [],
      "name": "isBurnActive",
      "outputs": [
        {
          "internalType": "bool",
          "name": "",
          "type": "bool"
        }
      ],
      "stateMutability": "view",
      "type": "function"
    },
    {
      "inputs": [
        {
          "internalType": "address",
          "name": "user",
          "type": "address"
        },
        {
          "internalType": "uint256",
          "name": "nonce",
          "type": "uint256"
        }
      ],
      "name": "isNonceProcessed",
      "outputs": [
        {
          "internalType": "bool",
          "name": "",
          "type": "bool"
        }
      ],
      "stateMutability": "view",
      "type": "function"
    },
    {
      "inputs": [],
      "name": "owner",
      "outputs": [
        {
          "internalType": "address",
          "name": "",
          "type": "address"
        }
      ],
      "stateMutability": "view",
      "type": "function"
    },
    {
      "inputs": [
        {
          "internalType": "uint256",
          "name": "index",
          "type": "uint256"
        }
      ],
      "name": "removeTaxRecipient",
      "outputs": [],
      "stateMutability": "nonpayable",
      "type": "function"
    },
    {
      "inputs": [],
      "name": "renounceOwnership",
      "outputs": [],
      "stateMutability": "nonpayable",
      "type": "function"
    },
    {
      "inputs": [
        {
          "internalType": "uint256",
          "name": "chainId",
          "type": "uint256"
        },
        {
          "internalType": "string",
          "name": "name",
          "type": "string"
        }
      ],
      "name": "setChainName",
      "outputs": [],
      "stateMutability": "nonpayable",
      "type": "function"
    },
    {
      "inputs": [],
      "name": "taxBalance",
      "outputs": [
        {
          "internalType": "uint256",
          "name": "",
          "type": "uint256"
        }
      ],
      "stateMutability": "view",
      "type": "function"
    },
    {
      "inputs": [],
      "name": "taxRate",
      "outputs": [
        {
          "internalType": "uint256",
          "name": "",
          "type": "uint256"
        }
      ],
      "stateMutability": "view",
      "type": "function"
    },
    {
      "inputs": [
        {
          "internalType": "uint256",
          "name": "",
          "type": "uint256"
        }
      ],
      "name": "taxRecipients",
      "outputs": [
        {
          "internalType": "address",
          "name": "wallet",
          "type": "address"
        },
        {
          "internalType": "uint256",
          "name": "percentage",
          "type": "uint256"
        }
      ],
      "stateMutability": "view",
      "type": "function"
    },
    {
      "inputs": [],
      "name": "toggleBurnActive",
      "outputs": [],
      "stateMutability": "nonpayable",
      "type": "function"
    },
    {
      "inputs": [],
      "name": "token",
      "outputs": [
        {
          "internalType": "contract CIT",
          "name": "",
          "type": "address"
        }
      ],
      "stateMutability": "view",
      "type": "function"
    },
    {
      "inputs": [],
      "name": "totalPercentageAllocated",
      "outputs": [
        {
          "internalType": "uint256",
          "name": "",
          "type": "uint256"
        }
      ],
      "stateMutability": "view",
      "type": "function"
    },
    {
      "inputs": [
        {
          "internalType": "address",
          "name": "newOwner",
          "type": "address"
        }
      ],
      "name": "transferOwnership",
      "outputs": [],
      "stateMutability": "nonpayable",
      "type": "function"
    },
    {
      "inputs": [
        {
          "internalType": "uint256",
          "name": "newRate",
          "type": "uint256"
        }
      ],
      "name": "updateBscTaxRate",
      "outputs": [],
      "stateMutability": "nonpayable",
      "type": "function"
    },
    {
      "inputs": [
        {
          "internalType": "uint256",
          "name": "newTaxRate",
          "type": "uint256"
        }
      ],
      "name": "updateTaxRate",
      "outputs": [],
      "stateMutability": "nonpayable",
      "type": "function"
    },
    {
      "inputs": [
        {
          "internalType": "uint256",
          "name": "index",
          "type": "uint256"
        },
        {
          "internalType": "address",
          "name": "wallet",
          "type": "address"
        },
        {
          "internalType": "uint256",
          "name": "percentage",
          "type": "uint256"
        }
      ],
      "name": "updateTaxRecipient",
      "outputs": [],
      "stateMutability": "nonpayable",
      "type": "function"
    },
    {
      "inputs": [],
      "name": "withdrawTax",
      "outputs": [],
      "stateMutability": "nonpayable",
      "type": "function"
    }
  ],
  "bytecode": "0x60806040523480156200001157600080fd5b5060405162001be138038062001be1833981016040819052620000349162000128565b60016000556200004433620000d6565b6001600160a01b0381166200009f5760405162461bcd60e51b815260206004820152601b60248201527f546f6b656e20616464726573732063616e2774206265207a65726f0000000000604482015260640160405180910390fd5b600280546001600160a81b0319166001600160a01b039092169190911781556003556000600481905560058190556007556200015a565b600180546001600160a01b038381166001600160a01b0319831681179093556040519116919082907f8be0079c531659141344cd1fd0a4f28419497f9722a3daafe3b4186f6b6457e090600090a35050565b6000602082840312156200013b57600080fd5b81516001600160a01b03811681146200015357600080fd5b9392505050565b611a77806200016a6000396000f3fe6080604052600436106101355760003560e01c806390bb075d116100ab578063be2be08a1161006f578063be2be08a14610373578063dfa20f0a14610393578063e0b4d652146103a8578063f2fde38b146103be578063fc0c546a146103de578063fd527e0c146103fe57600080fd5b806390bb075d146102c3578063977a6be1146102f3578063aa98e16314610329578063adcdca5f1461033f578063b1a6676e1461035257600080fd5b8063715018a6116100fd578063715018a6146101f95780637223c6ba1461020e578063733499c91461023b578063771a3a1d1461025b578063782cc682146102715780638da5cb5b1461029157600080fd5b8063046722871461013a57806317fdcc8e1461015c5780632adeb80b1461017c578063301b18de146101a55780635bc0997c146101e4575b600080fd5b34801561014657600080fd5b5061015a6101553660046114c3565b61041e565b005b34801561016857600080fd5b5061015a6101773660046114f8565b610598565b34801561018857600080fd5b5061019260045481565b6040519081526020015b60405180910390f35b3480156101b157600080fd5b506101c56101c03660046114f8565b6105f6565b604080516001600160a01b03909316835260208301919091520161019c565b3480156101f057600080fd5b5061015a61062e565b34801561020557600080fd5b5061015a610657565b34801561021a57600080fd5b5061022e6102293660046114f8565b61066b565b60405161019c9190611561565b34801561024757600080fd5b5061015a61025636600461161e565b610705565b34801561026757600080fd5b5061019260035481565b34801561027d57600080fd5b5061015a61028c366004611665565b61072a565b34801561029d57600080fd5b506001546001600160a01b03165b6040516001600160a01b03909116815260200161019c565b3480156102cf57600080fd5b506102e36102de366004611665565b61082f565b604051901515815260200161019c565b3480156102ff57600080fd5b5061019261030e36600461168f565b6001600160a01b03166000908152600a602052604090205490565b34801561033557600080fd5b5061019260055481565b61015a61034d3660046116aa565b61085d565b34801561035e57600080fd5b506002546102e390600160a01b900460ff1681565b34801561037f57600080fd5b5061015a61038e3660046114f8565b610e2b565b34801561039f57600080fd5b5061015a610e89565b3480156103b457600080fd5b5061019260075481565b3480156103ca57600080fd5b5061015a6103d936600461168f565b610eea565b3480156103ea57600080fd5b506002546102ab906001600160a01b031681565b34801561040a57600080fd5b5061015a6104193660046114f8565b610f63565b6104266110c6565b600654831061046c5760405162461bcd60e51b815260206004820152600d60248201526c092dcecc2d8d2c840d2dcc8caf609b1b60448201526064015b60405180910390fd5b606481600685815481106104825761048261175d565b9060005260206000209060020201600101546007546104a19190611789565b6104ab919061179c565b11156104e85760405162461bcd60e51b815260206004820152600c60248201526b45786365656473203130302560a01b6044820152606401610463565b80600684815481106104fc576104fc61175d565b90600052602060002090600202016001015460075461051b9190611789565b610525919061179c565b600755604080518082019091526001600160a01b03831681526020810182905260068054859081106105595761055961175d565b600091825260209182902083516002929092020180546001600160a01b0319166001600160a01b03909216919091178155910151600190910155505050565b6105a06110c6565b60078111156105f15760405162461bcd60e51b815260206004820152601960248201527f54617820726174652063616e6e6f7420657863656564203725000000000000006044820152606401610463565b600355565b6006818154811061060657600080fd5b6000918252602090912060029091020180546001909101546001600160a01b03909116915082565b6106366110c6565b6002805460ff60a01b198116600160a01b9182900460ff1615909102179055565b61065f6110c6565b6106696000611120565b565b60086020526000908152604090208054610684906117af565b80601f01602080910402602001604051908101604052809291908181526020018280546106b0906117af565b80156106fd5780601f106106d2576101008083540402835291602001916106fd565b820191906000526020600020905b8154815290600101906020018083116106e057829003601f168201915b505050505081565b61070d6110c6565b6000828152600860205260409020610725828261182f565b505050565b6107326110c6565b606481600754610742919061179c565b111561077f5760405162461bcd60e51b815260206004820152600c60248201526b45786365656473203130302560a01b6044820152606401610463565b604080518082019091526001600160a01b0383811682526020820183815260068054600181018255600091825293517ff652222313e28459528d920b65115c16c04f3efc82aaedc97be59f3f377c0d3f600290950294850180546001600160a01b0319169190941617909255517ff652222313e28459528d920b65115c16c04f3efc82aaedc97be59f3f377c0d40909201919091556007805483929061082690849061179c565b90915550505050565b6001600160a01b038216600090815260096020908152604080832084845290915290205460ff165b92915050565b610865611172565b600254600160a01b900460ff166108be5760405162461bcd60e51b815260206004820152601b60248201527f4275726e2066756e6374696f6e206973206e6f742061637469766500000000006044820152606401610463565b6000851161090e5760405162461bcd60e51b815260206004820181905260248201527f416d6f756e74206d7573742062652067726561746572207468616e207a65726f6044820152606401610463565b33600090815260096020908152604080832087845290915290205460ff16156109795760405162461bcd60e51b815260206004820152601a60248201527f5472616e7366657220616c72656164792070726f6365737365640000000000006044820152606401610463565b336000908152600a602052604090205484146109cc5760405162461bcd60e51b81526020600482015260126024820152712737b731b29037baba1037b31037b93232b960711b6044820152606401610463565b6000610a48338888886040516020016109e894939291906118ef565b60408051601f1981840301815282825280516020918201207f19457468657265756d205369676e6564204d6573736167653a0a33320000000084830152603c8085019190915282518085039091018152605c909301909152815191012090565b9050336001600160a01b0316610a948286868080601f0160208091040260200160405190810160405280939291908181526020018383808284376000920191909152506111cb92505050565b6001600160a01b031614610adc5760405162461bcd60e51b815260206004820152600f60248201526e77726f6e67207369676e617475726560881b6044820152606401610463565b60008281526008602052604081208054610af5906117af565b80601f0160208091040260200160405190810160405280929190818152602001828054610b21906117af565b8015610b6e5780601f10610b4357610100808354040283529160200191610b6e565b820191906000526020600020905b815481529060010190602001808311610b5157829003601f168201915b505050505090506000815111610bb95760405162461bcd60e51b815260206004820152601060248201526f125b9d985b1a590818da185a5b88125160821b6044820152606401610463565b6000610bc48861124a565b90506000610bd2828a611789565b6002546040516323b872dd60e01b8152336004820152306024820152604481018c90529192506001600160a01b0316906323b872dd906064016020604051808303816000875af1158015610c2a573d6000803e3d6000fd5b505050506040513d601f19601f82011682018060405250810190610c4e9190611933565b50600254604051630852cd8d60e31b8152600481018390526001600160a01b03909116906342966c6890602401600060405180830381600087803b158015610c9557600080fd5b505af1158015610ca9573d6000803e3d6000fd5b505050508160056000828254610cbf919061179c565b90915550610cce905082611266565b6000606460045434610ce09190611955565b610cea919061196c565b905080341015610d3c5760405162461bcd60e51b815260206004820152601d60248201527f496e73756666696369656e7420425343207461782070726f76696465640000006044820152606401610463565b610d458161137a565b6000610d518234611789565b90508015610d8857604051339082156108fc029083906000818181858888f19350505050158015610d86573d6000803e3d6000fd5b505b3360009081526009602090815260408083208d84529091529020805460ff19166001908117909155610dbb908b9061179c565b336000908152600a60205260408120919091557f633c55b1b8ce11cbb68296e0aac99d1cd8bb0e7fb5e6c1be69a6cc54b8778e7c338e86428f8f8f8d604051610e0b98979695949392919061198e565b60405180910390a2505050505050610e236001600055565b505050505050565b610e336110c6565b6007811115610e845760405162461bcd60e51b815260206004820152601d60248201527f4253432074617820726174652063616e6e6f74206578636565642037250000006044820152606401610463565b600455565b610e916110c6565b600060055411610ed85760405162461bcd60e51b81526020600482015260126024820152714e6f2074617820746f20776974686472617760701b6044820152606401610463565b610ee3600554611266565b6000600555565b610ef26110c6565b6001600160a01b038116610f575760405162461bcd60e51b815260206004820152602660248201527f4f776e61626c653a206e6577206f776e657220697320746865207a65726f206160448201526564647265737360d01b6064820152608401610463565b610f6081611120565b50565b610f6b6110c6565b6006548110610fac5760405162461bcd60e51b815260206004820152600d60248201526c092dcecc2d8d2c840d2dcc8caf609b1b6044820152606401610463565b60068181548110610fbf57610fbf61175d565b90600052602060002090600202016001015460076000828254610fe29190611789565b909155508190505b600654610ff990600190611789565b81101561108857600661100d82600161179c565b8154811061101d5761101d61175d565b90600052602060002090600202016006828154811061103e5761103e61175d565b60009182526020909120825460029092020180546001600160a01b0319166001600160a01b039092169190911781556001918201549101558061108081611a12565b915050610fea565b50600680548061109a5761109a611a2b565b60008281526020812060026000199093019283020180546001600160a01b031916815560010155905550565b6001546001600160a01b031633146106695760405162461bcd60e51b815260206004820181905260248201527f4f776e61626c653a2063616c6c6572206973206e6f7420746865206f776e65726044820152606401610463565b600180546001600160a01b038381166001600160a01b0319831681179093556040519116919082907f8be0079c531659141344cd1fd0a4f28419497f9722a3daafe3b4186f6b6457e090600090a35050565b6002600054036111c45760405162461bcd60e51b815260206004820152601f60248201527f5265656e7472616e637947756172643a207265656e7472616e742063616c6c006044820152606401610463565b6002600055565b6000806000806111da85611435565b6040805160008152602081018083528b905260ff8516918101919091526060810183905260808101829052929550909350915060019060a0016020604051602081039080840390855afa158015611235573d6000803e3d6000fd5b5050604051601f190151979650505050505050565b600060646003548361125c9190611955565b610857919061196c565b60005b6006548110156113765760006007546006838154811061128b5761128b61175d565b906000526020600020906002020160010154846112a89190611955565b6112b2919061196c565b600254600680549293506001600160a01b039091169163a9059cbb9190859081106112df576112df61175d565b600091825260209091206002909102015460405160e083901b6001600160e01b03191681526001600160a01b039091166004820152602481018490526044016020604051808303816000875af115801561133d573d6000803e3d6000fd5b505050506040513d601f19601f820116820180604052508101906113619190611933565b5050808061136e90611a12565b915050611269565b5050565b60005b6006548110156113765760006007546006838154811061139f5761139f61175d565b906000526020600020906002020160010154846113bc9190611955565b6113c6919061196c565b9050600682815481106113db576113db61175d565b600091825260208220600290910201546040516001600160a01b039091169183156108fc02918491818181858888f19350505050158015611420573d6000803e3d6000fd5b5050808061142d90611a12565b91505061137d565b6000806000835160411461148b5760405162461bcd60e51b815260206004820152601860248201527f496e76616c6964207369676e6174757265206c656e67746800000000000000006044820152606401610463565b5050506020810151604082015160609092015160001a92909190565b80356001600160a01b03811681146114be57600080fd5b919050565b6000806000606084860312156114d857600080fd5b833592506114e8602085016114a7565b9150604084013590509250925092565b60006020828403121561150a57600080fd5b5035919050565b60005b8381101561152c578181015183820152602001611514565b50506000910152565b6000815180845261154d816020860160208601611511565b601f01601f19169290920160200192915050565b6020815260006115746020830184611535565b9392505050565b634e487b7160e01b600052604160045260246000fd5b600082601f8301126115a257600080fd5b813567ffffffffffffffff808211156115bd576115bd61157b565b604051601f8301601f19908116603f011681019082821181831017156115e5576115e561157b565b816040528381528660208588010111156115fe57600080fd5b836020870160208301376000602085830101528094505050505092915050565b6000806040838503121561163157600080fd5b82359150602083013567ffffffffffffffff81111561164f57600080fd5b61165b85828601611591565b9150509250929050565b6000806040838503121561167857600080fd5b611681836114a7565b946020939093013593505050565b6000602082840312156116a157600080fd5b611574826114a7565b60008060008060008060a087890312156116c357600080fd5b863567ffffffffffffffff808211156116db57600080fd5b6116e78a838b01611591565b97506020890135965060408901359550606089013591508082111561170b57600080fd5b818901915089601f83011261171f57600080fd5b81358181111561172e57600080fd5b8a602082850101111561174057600080fd5b602083019550809450505050608087013590509295509295509295565b634e487b7160e01b600052603260045260246000fd5b634e487b7160e01b600052601160045260246000fd5b8181038181111561085757610857611773565b8082018082111561085757610857611773565b600181811c908216806117c357607f821691505b6020821081036117e357634e487b7160e01b600052602260045260246000fd5b50919050565b601f82111561072557600081815260208120601f850160051c810160208610156118105750805b601f850160051c820191505b81811015610e235782815560010161181c565b815167ffffffffffffffff8111156118495761184961157b565b61185d8161185784546117af565b846117e9565b602080601f831160018114611892576000841561187a5750858301515b600019600386901b1c1916600185901b178555610e23565b600085815260208120601f198616915b828110156118c1578886015182559484019460019091019084016118a2565b50858210156118df5787850151600019600388901b60f8161c191681555b5050505050600190811b01905550565b6bffffffffffffffffffffffff198560601b16815260008451611919816014850160208901611511565b909101601481019390935250603482015260540192915050565b60006020828403121561194557600080fd5b8151801515811461157457600080fd5b808202811582820484141761085757610857611773565b60008261198957634e487b7160e01b600052601260045260246000fd5b500490565b6001600160a01b038916815260e0602082018190526000906119b29083018a611535565b88604084015287606084015286608084015282810360a084015284815284866020830137600060208683010152601f19601f8601168101905060208382030160c0840152611a036020820185611535565b9b9a5050505050505050505050565b600060018201611a2457611a24611773565b5060010190565b634e487b7160e01b600052603160045260246000fdfea26469706673582212201e77b665aa12f8606e9e3d5e2b78bbc76edb9f55c2908f53757ad61e6cb37c1d64736f6c63430008130033",
  "linkReferences": {},
  "deployedLinkReferences": {}
}