{
  "_format": "hh-sol-artifact-1",
  "contractName": "BscBridgeMint",
  "sourceName": "contracts/BridgePHA-eth/BscBridgeMint.sol",
  "abi": [
    {
      "inputs": [
        {
          "internalType": "contract CIT",
          "name": "_token",
          "type": "address"
        }
      ],
      "stateMutability": "nonpayable",
      "type": "constructor"
    },
    {
      "anonymous": false,
      "inputs": [
        {
          "indexed": true,
          "internalType": "address",
          "name": "claimant",
          "type": "address"
        },
        {
          "indexed": false,
          "internalType": "uint256",
          "name": "nonce",
          "type": "uint256"
        },
        {
          "indexed": false,
          "internalType": "uint256",
          "name": "timestamp",
          "type": "uint256"
        }
      ],
      "name": "ClaimExpired",
      "type": "event"
    },
    {
      "anonymous": false,
      "inputs": [
        {
          "indexed": true,
          "internalType": "address",
          "name": "previousOwner",
          "type": "address"
        },
        {
          "indexed": true,
          "internalType": "address",
          "name": "newOwner",
          "type": "address"
        }
      ],
      "name": "OwnershipTransferred",
      "type": "event"
    },
    {
      "anonymous": false,
      "inputs": [
        {
          "indexed": true,
          "internalType": "address",
          "name": "from",
          "type": "address"
        },
        {
          "indexed": true,
          "internalType": "address",
          "name": "to",
          "type": "address"
        },
        {
          "indexed": false,
          "internalType": "uint256",
          "name": "amount",
          "type": "uint256"
        },
        {
          "indexed": false,
          "internalType": "uint256",
          "name": "date",
          "type": "uint256"
        },
        {
          "indexed": false,
          "internalType": "uint256",
          "name": "nonce",
          "type": "uint256"
        },
        {
          "indexed": true,
          "internalType": "enum BscBridgeMint.Step",
          "name": "step",
          "type": "uint8"
        }
      ],
      "name": "Transfer",
      "type": "event"
    },
    {
      "inputs": [
        {
          "internalType": "address",
          "name": "wallet",
          "type": "address"
        },
        {
          "internalType": "uint256",
          "name": "percentage",
          "type": "uint256"
        }
      ],
      "name": "addTaxRecipient",
      "outputs": [],
      "stateMutability": "nonpayable",
      "type": "function"
    },
    {
      "inputs": [
        {
          "internalType": "uint256",
          "name": "nonce",
          "type": "uint256"
        }
      ],
      "name": "claimTokens",
      "outputs": [],
      "stateMutability": "payable",
      "type": "function"
    },
    {
      "inputs": [],
      "name": "extraGasFeePercentage",
      "outputs": [
        {
          "internalType": "uint256",
          "name": "",
          "type": "uint256"
        }
      ],
      "stateMutability": "view",
      "type": "function"
    },
    {
      "inputs": [
        {
          "internalType": "address",
          "name": "user",
          "type": "address"
        }
      ],
      "name": "getPendingClaims",
      "outputs": [
        {
          "components": [
            {
              "internalType": "address",
              "name": "from",
              "type": "address"
            },
            {
              "internalType": "uint256",
              "name": "amount",
              "type": "uint256"
            },
            {
              "internalType": "uint256",
              "name": "gasCost",
              "type": "uint256"
            },
            {
              "internalType": "uint256",
              "name": "claimableAmount",
              "type": "uint256"
            },
            {
              "internalType": "uint256",
              "name": "timestamp",
              "type": "uint256"
            },
            {
              "internalType": "bool",
              "name": "expired",
              "type": "bool"
            },
            {
              "internalType": "uint256",
              "name": "expiry",
              "type": "uint256"
            }
          ],
          "internalType": "struct BscBridgeMint.MintRequest[]",
          "name": "",
          "type": "tuple[]"
        },
        {
          "internalType": "uint256[]",
          "name": "",
          "type": "uint256[]"
        }
      ],
      "stateMutability": "view",
      "type": "function"
    },
    {
      "inputs": [],
      "name": "isMintingActive",
      "outputs": [
        {
          "internalType": "bool",
          "name": "",
          "type": "bool"
        }
      ],
      "stateMutability": "view",
      "type": "function"
    },
    {
      "inputs": [
        {
          "internalType": "address",
          "name": "to",
          "type": "address"
        },
        {
          "internalType": "uint256",
          "name": "amount",
          "type": "uint256"
        },
        {
          "internalType": "uint256",
          "name": "nonce",
          "type": "uint256"
        }
      ],
      "name": "mint",
      "outputs": [],
      "stateMutability": "nonpayable",
      "type": "function"
    },
    {
      "inputs": [
        {
          "internalType": "uint256",
          "name": "",
          "type": "uint256"
        }
      ],
      "name": "mintRequests",
      "outputs": [
        {
          "internalType": "address",
          "name": "from",
          "type": "address"
        },
        {
          "internalType": "uint256",
          "name": "amount",
          "type": "uint256"
        },
        {
          "internalType": "uint256",
          "name": "gasCost",
          "type": "uint256"
        },
        {
          "internalType": "uint256",
          "name": "claimableAmount",
          "type": "uint256"
        },
        {
          "internalType": "uint256",
          "name": "timestamp",
          "type": "uint256"
        },
        {
          "internalType": "bool",
          "name": "expired",
          "type": "bool"
        },
        {
          "internalType": "uint256",
          "name": "expiry",
          "type": "uint256"
        }
      ],
      "stateMutability": "view",
      "type": "function"
    },
    {
      "inputs": [],
      "name": "owner",
      "outputs": [
        {
          "internalType": "address",
          "name": "",
          "type": "address"
        }
      ],
      "stateMutability": "view",
      "type": "function"
    },
    {
      "inputs": [
        {
          "internalType": "uint256",
          "name": "index",
          "type": "uint256"
        }
      ],
      "name": "removeTaxRecipient",
      "outputs": [],
      "stateMutability": "nonpayable",
      "type": "function"
    },
    {
      "inputs": [],
      "name": "renounceOwnership",
      "outputs": [],
      "stateMutability": "nonpayable",
      "type": "function"
    },
    {
      "inputs": [],
      "name": "taxBalance",
      "outputs": [
        {
          "internalType": "uint256",
          "name": "",
          "type": "uint256"
        }
      ],
      "stateMutability": "view",
      "type": "function"
    },
    {
      "inputs": [],
      "name": "taxRate",
      "outputs": [
        {
          "internalType": "uint256",
          "name": "",
          "type": "uint256"
        }
      ],
      "stateMutability": "view",
      "type": "function"
    },
    {
      "inputs": [
        {
          "internalType": "uint256",
          "name": "",
          "type": "uint256"
        }
      ],
      "name": "taxRecipients",
      "outputs": [
        {
          "internalType": "address",
          "name": "wallet",
          "type": "address"
        },
        {
          "internalType": "uint256",
          "name": "percentage",
          "type": "uint256"
        }
      ],
      "stateMutability": "view",
      "type": "function"
    },
    {
      "inputs": [],
      "name": "toggleMintingActive",
      "outputs": [],
      "stateMutability": "nonpayable",
      "type": "function"
    },
    {
      "inputs": [],
      "name": "token",
      "outputs": [
        {
          "internalType": "contract CIT",
          "name": "",
          "type": "address"
        }
      ],
      "stateMutability": "view",
      "type": "function"
    },
    {
      "inputs": [],
      "name": "totalPercentageAllocated",
      "outputs": [
        {
          "internalType": "uint256",
          "name": "",
          "type": "uint256"
        }
      ],
      "stateMutability": "view",
      "type": "function"
    },
    {
      "inputs": [
        {
          "internalType": "address",
          "name": "newOwner",
          "type": "address"
        }
      ],
      "name": "transferOwnership",
      "outputs": [],
      "stateMutability": "nonpayable",
      "type": "function"
    },
    {
      "inputs": [
        {
          "internalType": "uint256",
          "name": "_extraGasFeePercentage",
          "type": "uint256"
        }
      ],
      "name": "updateExtraGasFeePercentage",
      "outputs": [],
      "stateMutability": "nonpayable",
      "type": "function"
    },
    {
      "inputs": [
        {
          "internalType": "uint256",
          "name": "newTaxRate",
          "type": "uint256"
        }
      ],
      "name": "updateTaxRate",
      "outputs": [],
      "stateMutability": "nonpayable",
      "type": "function"
    },
    {
      "inputs": [
        {
          "internalType": "uint256",
          "name": "index",
          "type": "uint256"
        },
        {
          "internalType": "address",
          "name": "wallet",
          "type": "address"
        },
        {
          "internalType": "uint256",
          "name": "percentage",
          "type": "uint256"
        }
      ],
      "name": "updateTaxRecipient",
      "outputs": [],
      "stateMutability": "nonpayable",
      "type": "function"
    },
    {
      "inputs": [
        {
          "internalType": "uint256",
          "name": "nonce",
          "type": "uint256"
        }
      ],
      "name": "withdrawExpiredClaims",
      "outputs": [],
      "stateMutability": "nonpayable",
      "type": "function"
    },
    {
      "inputs": [],
      "name": "withdrawTax",
      "outputs": [],
      "stateMutability": "nonpayable",
      "type": "function"
    }
  ],
  "bytecode": "0x60806040523480156200001157600080fd5b5060405162001bfd38038062001bfd833981016040819052620000349162000128565b60016000556200004433620000d6565b6001600160a01b0381166200009f5760405162461bcd60e51b815260206004820152601b60248201527f546f6b656e20616464726573732063616e2774206265207a65726f0000000000604482015260640160405180910390fd5b600280546001600160a81b0319166001600160a01b039092169190911781556003819055600060048190556005556006556200015a565b600180546001600160a01b038381166001600160a01b0319831681179093556040519116919082907f8be0079c531659141344cd1fd0a4f28419497f9722a3daafe3b4186f6b6457e090600090a35050565b6000602082840312156200013b57600080fd5b81516001600160a01b03811681146200015357600080fd5b9392505050565b611a93806200016a6000396000f3fe6080604052600436106101355760003560e01c8063782cc682116100ab578063aa98e1631161006f578063aa98e163146103ee578063dfa20f0a14610404578063e0b4d65214610419578063f2fde38b1461042f578063fc0c546a1461044f578063fd527e0c1461046f57600080fd5b8063782cc682146103395780638da5cb5b1461035957806393bd67c31461038b57806399f91405146103a0578063a6911579146103ce57600080fd5b8063424e6575116100fd578063424e65751461020457806346e04a2f146102aa5780635a1b0463146102bd5780636ac437b0146102dd578063715018a61461030e578063771a3a1d1461032357600080fd5b8063046722871461013a578063156e29f61461015c57806317fdcc8e1461017c57806325aed4881461019c578063301b18de146101c5575b600080fd5b34801561014657600080fd5b5061015a6101553660046117c4565b61048f565b005b34801561016857600080fd5b5061015a6101773660046117f9565b610609565b34801561018857600080fd5b5061015a61019736600461182c565b6108b0565b3480156101a857600080fd5b506101b260065481565b6040519081526020015b60405180910390f35b3480156101d157600080fd5b506101e56101e036600461182c565b61090e565b604080516001600160a01b0390931683526020830191909152016101bc565b34801561021057600080fd5b5061026961021f36600461182c565b60076020526000908152604090208054600182015460028301546003840154600485015460058601546006909601546001600160a01b0390951695939492939192909160ff169087565b604080516001600160a01b03909816885260208801969096529486019390935260608501919091526080840152151560a083015260c082015260e0016101bc565b61015a6102b836600461182c565b610946565b3480156102c957600080fd5b5061015a6102d836600461182c565b610d1a565b3480156102e957600080fd5b506002546102fe90600160a01b900460ff1681565b60405190151581526020016101bc565b34801561031a57600080fd5b5061015a610e36565b34801561032f57600080fd5b506101b260035481565b34801561034557600080fd5b5061015a610354366004611845565b610e4a565b34801561036557600080fd5b506001546001600160a01b03165b6040516001600160a01b0390911681526020016101bc565b34801561039757600080fd5b5061015a610f4f565b3480156103ac57600080fd5b506103c06103bb36600461186f565b610f78565b6040516101bc9291906118cc565b3480156103da57600080fd5b5061015a6103e936600461182c565b6112b0565b3480156103fa57600080fd5b506101b260045481565b34801561041057600080fd5b5061015a611320565b34801561042557600080fd5b506101b260055481565b34801561043b57600080fd5b5061015a61044a36600461186f565b6114a8565b34801561045b57600080fd5b50600254610373906001600160a01b031681565b34801561047b57600080fd5b5061015a61048a36600461182c565b61151e565b610497611681565b60095483106104dd5760405162461bcd60e51b815260206004820152600d60248201526c092dcecc2d8d2c840d2dcc8caf609b1b60448201526064015b60405180910390fd5b606481600985815481106104f3576104f361196b565b9060005260206000209060020201600101546005546105129190611997565b61051c91906119aa565b11156105595760405162461bcd60e51b815260206004820152600c60248201526b45786365656473203130302560a01b60448201526064016104d4565b806009848154811061056d5761056d61196b565b90600052602060002090600202016001015460055461058c9190611997565b61059691906119aa565b600555604080518082019091526001600160a01b03831681526020810182905260098054859081106105ca576105ca61196b565b600091825260209182902083516002929092020180546001600160a01b0319166001600160a01b03909216919091178155910151600190910155505050565b610611611681565b6106196116db565b600254600160a01b900460ff1661066a5760405162461bcd60e51b81526020600482015260156024820152744d696e74696e67206973206e6f742061637469766560581b60448201526064016104d4565b60005a9050600061067a84611734565b905060006106888286611997565b6002546040516340c10f1960e01b8152306004820152602481018890529192506001600160a01b0316906340c10f1990604401600060405180830381600087803b1580156106d557600080fd5b505af11580156106e9573d6000803e3d6000fd5b5050505081600460008282546106ff91906119aa565b925050819055506040518060e00160405280876001600160a01b03168152602001828152602001600081526020018281526020014281526020016000151581526020014261070861075091906119aa565b90526000858152600760209081526040808320845181546001600160a01b0319166001600160a01b039091161781559184015160018301558301516002820155606083015160038201556080830151600482015560a083015160058201805460ff191691151591909117905560c0909201516006909201919091555a6107d69085611997565b905060006107e43a836119bd565b905060006064600654836107f891906119bd565b61080291906119d4565b905061080e81836119aa565b6000888152600760209081526040808320600201939093556001600160a01b038c16808352600882529282208054600181018255908352908220018990559033604080518881524260208201529081018b90526001600160a01b0391909116907f27757542a5e1b9e8cef80f584e094d4eb63b9802f355c61b3640b71b618d5c8e9060600160405180910390a45050505050506108ab6001600055565b505050565b6108b8611681565b60078111156109095760405162461bcd60e51b815260206004820152601960248201527f54617820726174652063616e6e6f74206578636565642037250000000000000060448201526064016104d4565b600355565b6009818154811061091e57600080fd5b6000918252602090912060029091020180546001909101546001600160a01b03909116915082565b61094e6116db565b600081815260076020526040902080546001600160a01b031633146109b55760405162461bcd60e51b815260206004820152601960248201527f4e6f742074686520726967687466756c20636c61696d616e740000000000000060448201526064016104d4565b8060060154421115610a095760405162461bcd60e51b815260206004820152601860248201527f436c61696d20706572696f64206861732065787069726564000000000000000060448201526064016104d4565b600581015460ff1615610a5e5760405162461bcd60e51b815260206004820152601860248201527f436c61696d20697320616c72656164792065787069726564000000000000000060448201526064016104d4565b8060020154341015610ab25760405162461bcd60e51b815260206004820152601b60248201527f496e73756666696369656e74206761732066656520616d6f756e74000000000060448201526064016104d4565b60015460028201546040516001600160a01b039092169181156108fc0291906000818181858888f19350505050158015610af0573d6000803e3d6000fd5b50600254600382015460405163a9059cbb60e01b815233600482015260248101919091526001600160a01b039091169063a9059cbb906044016020604051808303816000875af1158015610b48573d6000803e3d6000fd5b505050506040513d601f19601f82011682018060405250810190610b6c91906119f6565b5060005b600954811015610c8e57600061271060098381548110610b9257610b9261196b565b9060005260206000209060020201600101548460010154600354610bb691906119bd565b610bc091906119bd565b610bca91906119d4565b600254600980549293506001600160a01b039091169163a9059cbb919085908110610bf757610bf761196b565b600091825260209091206002909102015460405160e083901b6001600160e01b03191681526001600160a01b039091166004820152602481018490526044016020604051808303816000875af1158015610c55573d6000803e3d6000fd5b505050506040513d601f19601f82011682018060405250810190610c7991906119f6565b50508080610c8690611a18565b915050610b70565b506000600382015560058101805460ff1916600190811790915533610cbb6001546001600160a01b031690565b60038401546040805191825242602083015281018690526001600160a01b0391909116907f27757542a5e1b9e8cef80f584e094d4eb63b9802f355c61b3640b71b618d5c8e9060600160405180910390a450610d176001600055565b50565b610d22611681565b6000818152600760205260409020600581015460ff16610d935760405162461bcd60e51b815260206004820152602660248201527f436c61696d206e6f742065787069726564206f7220616c72656164792070726f60448201526518d95cdcd95960d21b60648201526084016104d4565b6002546001600160a01b031663a9059cbb610db66001546001600160a01b031690565b60038401546040516001600160e01b031960e085901b1681526001600160a01b03909216600483015260248201526044016020604051808303816000875af1158015610e06573d6000803e3d6000fd5b505050506040513d601f19601f82011682018060405250810190610e2a91906119f6565b50600060039091015550565b610e3e611681565b610e486000611756565b565b610e52611681565b606481600554610e6291906119aa565b1115610e9f5760405162461bcd60e51b815260206004820152600c60248201526b45786365656473203130302560a01b60448201526064016104d4565b604080518082019091526001600160a01b0383811682526020820183815260098054600181018255600091825293517f6e1540171b6c0c960b71a7020d9f60077f6af931a8bbf590da0223dacf75c7af600290950294850180546001600160a01b0319169190941617909255517f6e1540171b6c0c960b71a7020d9f60077f6af931a8bbf590da0223dacf75c7b09092019190915560058054839290610f469084906119aa565b90915550505050565b610f57611681565b6002805460ff60a01b198116600160a01b9182900460ff1615909102179055565b6001600160a01b0381166000908152600860209081526040808320805482518185028101850190935280835260609485949093929190830182828015610fdd57602002820191906000526020600020905b815481526020019060010190808311610fc9575b505050505090506000805b825181101561107a576000600760008584815181106110095761100961196b565b6020026020010151815260200190815260200160002090508060050160009054906101000a900460ff16158015611044575060008160030154115b8015611054575080600601544211155b15611067578261106381611a18565b9350505b508061107281611a18565b915050610fe8565b5060008167ffffffffffffffff81111561109657611096611a31565b60405190808252806020026020018201604052801561111257816020015b6110ff6040518060e0016040528060006001600160a01b0316815260200160008152602001600081526020016000815260200160008152602001600015158152602001600081525090565b8152602001906001900390816110b45790505b50905060008267ffffffffffffffff81111561113057611130611a31565b604051908082528060200260200182016040528015611159578160200160208202803683370190505b5090506000805b85518110156112a2576000600760008884815181106111815761118161196b565b6020026020010151815260200190815260200160002090508060050160009054906101000a900460ff161580156111bc575060008160030154115b80156111cc575080600601544211155b1561128f576040805160e08101825282546001600160a01b03168152600183015460208201526002830154918101919091526003820154606082015260048201546080820152600582015460ff16151560a0820152600682015460c0820152855186908590811061123f5761123f61196b565b602002602001018190525086828151811061125c5761125c61196b565b60200260200101518484815181106112765761127661196b565b60209081029190910101528261128b81611a18565b9350505b508061129a81611a18565b915050611160565b509197909650945050505050565b6112b8611681565b600781111561131b5760405162461bcd60e51b815260206004820152602960248201527f457874726120676173206665652070657263656e746167652063616e6e6f742060448201526865786365656420372560b81b60648201526084016104d4565b600655565b611328611681565b60006004541161136f5760405162461bcd60e51b81526020600482015260126024820152714e6f2074617820746f20776974686472617760701b60448201526064016104d4565b6000805b60095481101561148d5760006064600983815481106113945761139461196b565b9060005260206000209060020201600101546004546113b391906119bd565b6113bd91906119d4565b600254600980549293506001600160a01b039091169163a9059cbb9190859081106113ea576113ea61196b565b600091825260209091206002909102015460405160e083901b6001600160e01b03191681526001600160a01b039091166004820152602481018490526044016020604051808303816000875af1158015611448573d6000803e3d6000fd5b505050506040513d601f19601f8201168201806040525081019061146c91906119f6565b5061147781846119aa565b925050808061148590611a18565b915050611373565b5080600460008282546114a09190611997565b909155505050565b6114b0611681565b6001600160a01b0381166115155760405162461bcd60e51b815260206004820152602660248201527f4f776e61626c653a206e6577206f776e657220697320746865207a65726f206160448201526564647265737360d01b60648201526084016104d4565b610d1781611756565b611526611681565b60095481106115675760405162461bcd60e51b815260206004820152600d60248201526c092dcecc2d8d2c840d2dcc8caf609b1b60448201526064016104d4565b6009818154811061157a5761157a61196b565b9060005260206000209060020201600101546005600082825461159d9190611997565b909155508190505b6009546115b490600190611997565b8110156116435760096115c88260016119aa565b815481106115d8576115d861196b565b9060005260206000209060020201600982815481106115f9576115f961196b565b60009182526020909120825460029092020180546001600160a01b0319166001600160a01b039092169190911781556001918201549101558061163b81611a18565b9150506115a5565b50600980548061165557611655611a47565b60008281526020812060026000199093019283020180546001600160a01b031916815560010155905550565b6001546001600160a01b03163314610e485760405162461bcd60e51b815260206004820181905260248201527f4f776e61626c653a2063616c6c6572206973206e6f7420746865206f776e657260448201526064016104d4565b60026000540361172d5760405162461bcd60e51b815260206004820152601f60248201527f5265656e7472616e637947756172643a207265656e7472616e742063616c6c0060448201526064016104d4565b6002600055565b600060646003548361174691906119bd565b61175091906119d4565b92915050565b600180546001600160a01b038381166001600160a01b0319831681179093556040519116919082907f8be0079c531659141344cd1fd0a4f28419497f9722a3daafe3b4186f6b6457e090600090a35050565b80356001600160a01b03811681146117bf57600080fd5b919050565b6000806000606084860312156117d957600080fd5b833592506117e9602085016117a8565b9150604084013590509250925092565b60008060006060848603121561180e57600080fd5b611817846117a8565b95602085013595506040909401359392505050565b60006020828403121561183e57600080fd5b5035919050565b6000806040838503121561185857600080fd5b611861836117a8565b946020939093013593505050565b60006020828403121561188157600080fd5b61188a826117a8565b9392505050565b600081518084526020808501945080840160005b838110156118c1578151875295820195908201906001016118a5565b509495945050505050565b6040808252835182820181905260009190606090818501906020808901865b8381101561194c57815180516001600160a01b031686528381015184870152878101518887015286810151878701526080808201519087015260a08082015115159087015260c0908101519086015260e090940193908201906001016118eb565b505086830390870152506119608187611891565b979650505050505050565b634e487b7160e01b600052603260045260246000fd5b634e487b7160e01b600052601160045260246000fd5b8181038181111561175057611750611981565b8082018082111561175057611750611981565b808202811582820484141761175057611750611981565b6000826119f157634e487b7160e01b600052601260045260246000fd5b500490565b600060208284031215611a0857600080fd5b8151801515811461188a57600080fd5b600060018201611a2a57611a2a611981565b5060010190565b634e487b7160e01b600052604160045260246000fd5b634e487b7160e01b600052603160045260246000fdfea2646970667358221220ca5ac7b7e6479d2735172536402bcf66d8bc2d17cbecfc3fbfad43b628d1f33364736f6c63430008130033",
  "linkReferences": {},
  "deployedLinkReferences": {}
}