{
  "_format": "hh-sol-artifact-1",
  "contractName": "CIT",
  "sourceName": "contracts/BridgePHA-eth/CIT.sol",
  "abi": [
    {
      "inputs": [],
      "stateMutability": "nonpayable",
      "type": "constructor"
    },
    {
      "anonymous": false,
      "inputs": [
        {
          "indexed": true,
          "internalType": "address",
          "name": "owner",
          "type": "address"
        },
        {
          "indexed": true,
          "internalType": "address",
          "name": "spender",
          "type": "address"
        },
        {
          "indexed": false,
          "internalType": "uint256",
          "name": "value",
          "type": "uint256"
        }
      ],
      "name": "Approval",
      "type": "event"
    },
    {
      "anonymous": false,
      "inputs": [
        {
          "indexed": true,
          "internalType": "address",
          "name": "previousOwner",
          "type": "address"
        },
        {
          "indexed": true,
          "internalType": "address",
          "name": "newOwner",
          "type": "address"
        }
      ],
      "name": "OwnershipTransferred",
      "type": "event"
    },
    {
      "anonymous": false,
      "inputs": [
        {
          "indexed": true,
          "internalType": "address",
          "name": "from",
          "type": "address"
        },
        {
          "indexed": true,
          "internalType": "address",
          "name": "to",
          "type": "address"
        },
        {
          "indexed": false,
          "internalType": "uint256",
          "name": "value",
          "type": "uint256"
        }
      ],
      "name": "Transfer",
      "type": "event"
    },
    {
      "inputs": [
        {
          "internalType": "address",
          "name": "owner",
          "type": "address"
        },
        {
          "internalType": "address",
          "name": "spender",
          "type": "address"
        }
      ],
      "name": "allowance",
      "outputs": [
        {
          "internalType": "uint256",
          "name": "",
          "type": "uint256"
        }
      ],
      "stateMutability": "view",
      "type": "function"
    },
    {
      "inputs": [
        {
          "internalType": "address",
          "name": "spender",
          "type": "address"
        },
        {
          "internalType": "uint256",
          "name": "amount",
          "type": "uint256"
        }
      ],
      "name": "approve",
      "outputs": [
        {
          "internalType": "bool",
          "name": "",
          "type": "bool"
        }
      ],
      "stateMutability": "nonpayable",
      "type": "function"
    },
    {
      "inputs": [
        {
          "internalType": "address",
          "name": "account",
          "type": "address"
        }
      ],
      "name": "balanceOf",
      "outputs": [
        {
          "internalType": "uint256",
          "name": "",
          "type": "uint256"
        }
      ],
      "stateMutability": "view",
      "type": "function"
    },
    {
      "inputs": [],
      "name": "bscBridgeBurn",
      "outputs": [
        {
          "internalType": "address",
          "name": "",
          "type": "address"
        }
      ],
      "stateMutability": "view",
      "type": "function"
    },
    {
      "inputs": [],
      "name": "bscBridgeMint",
      "outputs": [
        {
          "internalType": "address",
          "name": "",
          "type": "address"
        }
      ],
      "stateMutability": "view",
      "type": "function"
    },
    {
      "inputs": [
        {
          "internalType": "uint256",
          "name": "amount",
          "type": "uint256"
        }
      ],
      "name": "burn",
      "outputs": [],
      "stateMutability": "nonpayable",
      "type": "function"
    },
    {
      "inputs": [],
      "name": "decimals",
      "outputs": [
        {
          "internalType": "uint8",
          "name": "",
          "type": "uint8"
        }
      ],
      "stateMutability": "view",
      "type": "function"
    },
    {
      "inputs": [
        {
          "internalType": "address",
          "name": "spender",
          "type": "address"
        },
        {
          "internalType": "uint256",
          "name": "subtractedValue",
          "type": "uint256"
        }
      ],
      "name": "decreaseAllowance",
      "outputs": [
        {
          "internalType": "bool",
          "name": "",
          "type": "bool"
        }
      ],
      "stateMutability": "nonpayable",
      "type": "function"
    },
    {
      "inputs": [
        {
          "internalType": "address",
          "name": "spender",
          "type": "address"
        },
        {
          "internalType": "uint256",
          "name": "addedValue",
          "type": "uint256"
        }
      ],
      "name": "increaseAllowance",
      "outputs": [
        {
          "internalType": "bool",
          "name": "",
          "type": "bool"
        }
      ],
      "stateMutability": "nonpayable",
      "type": "function"
    },
    {
      "inputs": [
        {
          "internalType": "address",
          "name": "to",
          "type": "address"
        },
        {
          "internalType": "uint256",
          "name": "amount",
          "type": "uint256"
        }
      ],
      "name": "mint",
      "outputs": [],
      "stateMutability": "nonpayable",
      "type": "function"
    },
    {
      "inputs": [],
      "name": "name",
      "outputs": [
        {
          "internalType": "string",
          "name": "",
          "type": "string"
        }
      ],
      "stateMutability": "view",
      "type": "function"
    },
    {
      "inputs": [],
      "name": "owner",
      "outputs": [
        {
          "internalType": "address",
          "name": "",
          "type": "address"
        }
      ],
      "stateMutability": "view",
      "type": "function"
    },
    {
      "inputs": [],
      "name": "renounceOwnership",
      "outputs": [],
      "stateMutability": "nonpayable",
      "type": "function"
    },
    {
      "inputs": [
        {
          "internalType": "address",
          "name": "_contract",
          "type": "address"
        }
      ],
      "name": "setBscBridgeBurn",
      "outputs": [],
      "stateMutability": "nonpayable",
      "type": "function"
    },
    {
      "inputs": [
        {
          "internalType": "address",
          "name": "_contract",
          "type": "address"
        }
      ],
      "name": "setBscBridgeMint",
      "outputs": [],
      "stateMutability": "nonpayable",
      "type": "function"
    },
    {
      "inputs": [],
      "name": "symbol",
      "outputs": [
        {
          "internalType": "string",
          "name": "",
          "type": "string"
        }
      ],
      "stateMutability": "view",
      "type": "function"
    },
    {
      "inputs": [],
      "name": "totalSupply",
      "outputs": [
        {
          "internalType": "uint256",
          "name": "",
          "type": "uint256"
        }
      ],
      "stateMutability": "view",
      "type": "function"
    },
    {
      "inputs": [
        {
          "internalType": "address",
          "name": "to",
          "type": "address"
        },
        {
          "internalType": "uint256",
          "name": "amount",
          "type": "uint256"
        }
      ],
      "name": "transfer",
      "outputs": [
        {
          "internalType": "bool",
          "name": "",
          "type": "bool"
        }
      ],
      "stateMutability": "nonpayable",
      "type": "function"
    },
    {
      "inputs": [
        {
          "internalType": "address",
          "name": "from",
          "type": "address"
        },
        {
          "internalType": "address",
          "name": "to",
          "type": "address"
        },
        {
          "internalType": "uint256",
          "name": "amount",
          "type": "uint256"
        }
      ],
      "name": "transferFrom",
      "outputs": [
        {
          "internalType": "bool",
          "name": "",
          "type": "bool"
        }
      ],
      "stateMutability": "nonpayable",
      "type": "function"
    },
    {
      "inputs": [
        {
          "internalType": "address",
          "name": "newOwner",
          "type": "address"
        }
      ],
      "name": "transferOwnership",
      "outputs": [],
      "stateMutability": "nonpayable",
      "type": "function"
    }
  ],
  "bytecode": "0x60806040523480156200001157600080fd5b506040518060400160405280602081526020017f43656c65737469616c20496e7465726f7065726162696c69747920546f6b656e8152506040518060400160405280600381526020016210d25560ea1b81525081600390816200007591906200028a565b5060046200008482826200028a565b50506001600555506200009733620000c9565b620000c333620000aa6012600a6200046b565b620000bd9066038d7ea4c6800062000480565b6200011b565b620004b0565b600680546001600160a01b038381166001600160a01b0319831681179093556040519116919082907f8be0079c531659141344cd1fd0a4f28419497f9722a3daafe3b4186f6b6457e090600090a35050565b6001600160a01b038216620001765760405162461bcd60e51b815260206004820152601f60248201527f45524332303a206d696e7420746f20746865207a65726f206164647265737300604482015260640160405180910390fd5b80600260008282546200018a91906200049a565b90915550506001600160a01b038216600081815260208181526040808320805486019055518481527fddf252ad1be2c89b69c2b068fc378daa952ba7f163c4a11628f55a4df523b3ef910160405180910390a35050565b505050565b634e487b7160e01b600052604160045260246000fd5b600181811c908216806200021157607f821691505b6020821081036200023257634e487b7160e01b600052602260045260246000fd5b50919050565b601f821115620001e157600081815260208120601f850160051c81016020861015620002615750805b601f850160051c820191505b8181101562000282578281556001016200026d565b505050505050565b81516001600160401b03811115620002a657620002a6620001e6565b620002be81620002b78454620001fc565b8462000238565b602080601f831160018114620002f65760008415620002dd5750858301515b600019600386901b1c1916600185901b17855562000282565b600085815260208120601f198616915b82811015620003275788860151825594840194600190910190840162000306565b5085821015620003465787850151600019600388901b60f8161c191681555b5050505050600190811b01905550565b634e487b7160e01b600052601160045260246000fd5b600181815b80851115620003ad57816000190482111562000391576200039162000356565b808516156200039f57918102915b93841c939080029062000371565b509250929050565b600082620003c65750600162000465565b81620003d55750600062000465565b8160018114620003ee5760028114620003f95762000419565b600191505062000465565b60ff8411156200040d576200040d62000356565b50506001821b62000465565b5060208310610133831016604e8410600b84101617156200043e575081810a62000465565b6200044a83836200036c565b806000190482111562000461576200046162000356565b0290505b92915050565b6000620004798383620003b5565b9392505050565b808202811582820484141762000465576200046562000356565b8082018082111562000465576200046562000356565b610ef280620004c06000396000f3fe608060405234801561001057600080fd5b506004361061012c5760003560e01c80638da5cb5b116100ad578063a9e1992911610071578063a9e1992914610278578063c5da03e71461028b578063da26cb711461029e578063dd62ed3e146102b1578063f2fde38b146102c457600080fd5b80638da5cb5b1461021257806395d89b411461023757806396d12c551461023f578063a457c2d714610252578063a9059cbb1461026557600080fd5b806339509351116100f457806339509351146101a657806340c10f19146101b957806342966c68146101ce57806370a08231146101e1578063715018a61461020a57600080fd5b806306fdde0314610131578063095ea7b31461014f57806318160ddd1461017257806323b872dd14610184578063313ce56714610197575b600080fd5b6101396102d7565b6040516101469190610d23565b60405180910390f35b61016261015d366004610d8d565b610369565b6040519015158152602001610146565b6002545b604051908152602001610146565b610162610192366004610db7565b610383565b60405160128152602001610146565b6101626101b4366004610d8d565b6103a7565b6101cc6101c7366004610d8d565b6103c9565b005b6101cc6101dc366004610df3565b610448565b6101766101ef366004610e0c565b6001600160a01b031660009081526020819052604090205490565b6101cc6104c1565b6006546001600160a01b03165b6040516001600160a01b039091168152602001610146565b6101396104d5565b6101cc61024d366004610e0c565b6104e4565b610162610260366004610d8d565b610556565b610162610273366004610d8d565b6105d1565b60085461021f906001600160a01b031681565b6101cc610299366004610e0c565b6105df565b60075461021f906001600160a01b031681565b6101766102bf366004610e2e565b610651565b6101cc6102d2366004610e0c565b61067c565b6060600380546102e690610e61565b80601f016020809104026020016040519081016040528092919081815260200182805461031290610e61565b801561035f5780601f106103345761010080835404028352916020019161035f565b820191906000526020600020905b81548152906001019060200180831161034257829003601f168201915b5050505050905090565b6000336103778185856106f2565b60019150505b92915050565b600033610391858285610817565b61039c858585610891565b506001949350505050565b6000336103778185856103ba8383610651565b6103c49190610e9b565b6106f2565b6103d1610a35565b6008546001600160a01b031633146104305760405162461bcd60e51b815260206004820152601b60248201527f6f6e6c79204273634272696467654d696e742063616e206d696e74000000000060448201526064015b60405180910390fd5b61043a8282610a8e565b6104446001600555565b5050565b610450610a35565b6007546001600160a01b031633146104aa5760405162461bcd60e51b815260206004820152601b60248201527f6f6e6c79204273634272696467654275726e2063616e206275726e00000000006044820152606401610427565b6104b43382610b4d565b6104be6001600555565b50565b6104c9610c77565b6104d36000610cd1565b565b6060600480546102e690610e61565b6104ec610c77565b6001600160a01b0381166105345760405162461bcd60e51b815260206004820152600f60248201526e496e76616c6964206164647265737360881b6044820152606401610427565b600780546001600160a01b0319166001600160a01b0392909216919091179055565b600033816105648286610651565b9050838110156105c45760405162461bcd60e51b815260206004820152602560248201527f45524332303a2064656372656173656420616c6c6f77616e63652062656c6f77604482015264207a65726f60d81b6064820152608401610427565b61039c82868684036106f2565b600033610377818585610891565b6105e7610c77565b6001600160a01b03811661062f5760405162461bcd60e51b815260206004820152600f60248201526e496e76616c6964206164647265737360881b6044820152606401610427565b600880546001600160a01b0319166001600160a01b0392909216919091179055565b6001600160a01b03918216600090815260016020908152604080832093909416825291909152205490565b610684610c77565b6001600160a01b0381166106e95760405162461bcd60e51b815260206004820152602660248201527f4f776e61626c653a206e6577206f776e657220697320746865207a65726f206160448201526564647265737360d01b6064820152608401610427565b6104be81610cd1565b6001600160a01b0383166107545760405162461bcd60e51b8152602060048201526024808201527f45524332303a20617070726f76652066726f6d20746865207a65726f206164646044820152637265737360e01b6064820152608401610427565b6001600160a01b0382166107b55760405162461bcd60e51b815260206004820152602260248201527f45524332303a20617070726f766520746f20746865207a65726f206164647265604482015261737360f01b6064820152608401610427565b6001600160a01b0383811660008181526001602090815260408083209487168084529482529182902085905590518481527f8c5be1e5ebec7d5bd14f71427d1e84f3dd0314c0f7b2291e5b200ac8c7c3b92591015b60405180910390a3505050565b60006108238484610651565b9050600019811461088b578181101561087e5760405162461bcd60e51b815260206004820152601d60248201527f45524332303a20696e73756666696369656e7420616c6c6f77616e63650000006044820152606401610427565b61088b84848484036106f2565b50505050565b6001600160a01b0383166108f55760405162461bcd60e51b815260206004820152602560248201527f45524332303a207472616e736665722066726f6d20746865207a65726f206164604482015264647265737360d81b6064820152608401610427565b6001600160a01b0382166109575760405162461bcd60e51b815260206004820152602360248201527f45524332303a207472616e7366657220746f20746865207a65726f206164647260448201526265737360e81b6064820152608401610427565b6001600160a01b038316600090815260208190526040902054818110156109cf5760405162461bcd60e51b815260206004820152602660248201527f45524332303a207472616e7366657220616d6f756e7420657863656564732062604482015265616c616e636560d01b6064820152608401610427565b6001600160a01b03848116600081815260208181526040808320878703905593871680835291849020805487019055925185815290927fddf252ad1be2c89b69c2b068fc378daa952ba7f163c4a11628f55a4df523b3ef910160405180910390a361088b565b600260055403610a875760405162461bcd60e51b815260206004820152601f60248201527f5265656e7472616e637947756172643a207265656e7472616e742063616c6c006044820152606401610427565b6002600555565b6001600160a01b038216610ae45760405162461bcd60e51b815260206004820152601f60248201527f45524332303a206d696e7420746f20746865207a65726f2061646472657373006044820152606401610427565b8060026000828254610af69190610e9b565b90915550506001600160a01b038216600081815260208181526040808320805486019055518481527fddf252ad1be2c89b69c2b068fc378daa952ba7f163c4a11628f55a4df523b3ef910160405180910390a35050565b6001600160a01b038216610bad5760405162461bcd60e51b815260206004820152602160248201527f45524332303a206275726e2066726f6d20746865207a65726f206164647265736044820152607360f81b6064820152608401610427565b6001600160a01b03821660009081526020819052604090205481811015610c215760405162461bcd60e51b815260206004820152602260248201527f45524332303a206275726e20616d6f756e7420657863656564732062616c616e604482015261636560f01b6064820152608401610427565b6001600160a01b0383166000818152602081815260408083208686039055600280548790039055518581529192917fddf252ad1be2c89b69c2b068fc378daa952ba7f163c4a11628f55a4df523b3ef910161080a565b6006546001600160a01b031633146104d35760405162461bcd60e51b815260206004820181905260248201527f4f776e61626c653a2063616c6c6572206973206e6f7420746865206f776e65726044820152606401610427565b600680546001600160a01b038381166001600160a01b0319831681179093556040519116919082907f8be0079c531659141344cd1fd0a4f28419497f9722a3daafe3b4186f6b6457e090600090a35050565b600060208083528351808285015260005b81811015610d5057858101830151858201604001528201610d34565b506000604082860101526040601f19601f8301168501019250505092915050565b80356001600160a01b0381168114610d8857600080fd5b919050565b60008060408385031215610da057600080fd5b610da983610d71565b946020939093013593505050565b600080600060608486031215610dcc57600080fd5b610dd584610d71565b9250610de360208501610d71565b9150604084013590509250925092565b600060208284031215610e0557600080fd5b5035919050565b600060208284031215610e1e57600080fd5b610e2782610d71565b9392505050565b60008060408385031215610e4157600080fd5b610e4a83610d71565b9150610e5860208401610d71565b90509250929050565b600181811c90821680610e7557607f821691505b602082108103610e9557634e487b7160e01b600052602260045260246000fd5b50919050565b8082018082111561037d57634e487b7160e01b600052601160045260246000fdfea26469706673582212201a9665ba47d206b099d7504f6526babda0a96f9b2b42e34d1353bde696e25dd764736f6c63430008130033",
  "linkReferences": {},
  "deployedLinkReferences": {}
}